{
  "_format": "hh-sol-artifact-1",
  "contractName": "ERC1155Collection",
  "sourceName": "contracts/ERC1155Collection.sol",
  "abi": [
    {
      "inputs": [
        {
          "internalType": "string",
          "name": "_name",
          "type": "string"
        },
        {
          "internalType": "string",
          "name": "_symbol",
          "type": "string"
        },
        {
          "internalType": "string",
          "name": "_uri",
          "type": "string"
        }
      ],
      "stateMutability": "nonpayable",
      "type": "constructor"
    },
    {
      "anonymous": false,
      "inputs": [
        {
          "indexed": true,
          "internalType": "address",
          "name": "account",
          "type": "address"
        },
        {
          "indexed": true,
          "internalType": "address",
          "name": "operator",
          "type": "address"
        },
        {
          "indexed": false,
          "internalType": "bool",
          "name": "approved",
          "type": "bool"
        }
      ],
      "name": "ApprovalForAll",
      "type": "event"
    },
    {
      "anonymous": false,
      "inputs": [
        {
          "indexed": true,
          "internalType": "address",
          "name": "previousOwner",
          "type": "address"
        },
        {
          "indexed": true,
          "internalType": "address",
          "name": "newOwner",
          "type": "address"
        }
      ],
      "name": "OwnershipTransferred",
      "type": "event"
    },
    {
      "anonymous": false,
      "inputs": [
        {
          "indexed": true,
          "internalType": "address",
          "name": "operator",
          "type": "address"
        },
        {
          "indexed": true,
          "internalType": "address",
          "name": "from",
          "type": "address"
        },
        {
          "indexed": true,
          "internalType": "address",
          "name": "to",
          "type": "address"
        },
        {
          "indexed": false,
          "internalType": "uint256[]",
          "name": "ids",
          "type": "uint256[]"
        },
        {
          "indexed": false,
          "internalType": "uint256[]",
          "name": "values",
          "type": "uint256[]"
        }
      ],
      "name": "TransferBatch",
      "type": "event"
    },
    {
      "anonymous": false,
      "inputs": [
        {
          "indexed": true,
          "internalType": "address",
          "name": "operator",
          "type": "address"
        },
        {
          "indexed": true,
          "internalType": "address",
          "name": "from",
          "type": "address"
        },
        {
          "indexed": true,
          "internalType": "address",
          "name": "to",
          "type": "address"
        },
        {
          "indexed": false,
          "internalType": "uint256",
          "name": "id",
          "type": "uint256"
        },
        {
          "indexed": false,
          "internalType": "uint256",
          "name": "value",
          "type": "uint256"
        }
      ],
      "name": "TransferSingle",
      "type": "event"
    },
    {
      "anonymous": false,
      "inputs": [
        {
          "indexed": false,
          "internalType": "string",
          "name": "value",
          "type": "string"
        },
        {
          "indexed": true,
          "internalType": "uint256",
          "name": "id",
          "type": "uint256"
        }
      ],
      "name": "URI",
      "type": "event"
    },
    {
      "inputs": [
        {
          "internalType": "address",
          "name": "account",
          "type": "address"
        },
        {
          "internalType": "uint256",
          "name": "id",
          "type": "uint256"
        }
      ],
      "name": "balanceOf",
      "outputs": [
        {
          "internalType": "uint256",
          "name": "",
          "type": "uint256"
        }
      ],
      "stateMutability": "view",
      "type": "function"
    },
    {
      "inputs": [
        {
          "internalType": "address[]",
          "name": "accounts",
          "type": "address[]"
        },
        {
          "internalType": "uint256[]",
          "name": "ids",
          "type": "uint256[]"
        }
      ],
      "name": "balanceOfBatch",
      "outputs": [
        {
          "internalType": "uint256[]",
          "name": "",
          "type": "uint256[]"
        }
      ],
      "stateMutability": "view",
      "type": "function"
    },
    {
      "inputs": [
        {
          "internalType": "address",
          "name": "account",
          "type": "address"
        },
        {
          "internalType": "uint256",
          "name": "id",
          "type": "uint256"
        },
        {
          "internalType": "uint256",
          "name": "value",
          "type": "uint256"
        }
      ],
      "name": "burn",
      "outputs": [],
      "stateMutability": "nonpayable",
      "type": "function"
    },
    {
      "inputs": [],
      "name": "contractURI",
      "outputs": [
        {
          "internalType": "string",
          "name": "",
          "type": "string"
        }
      ],
      "stateMutability": "view",
      "type": "function"
    },
    {
      "inputs": [
        {
          "internalType": "address",
          "name": "_initialOwner",
          "type": "address"
        },
        {
          "internalType": "uint256",
          "name": "_initialSupply",
          "type": "uint256"
        },
        {
          "internalType": "string",
          "name": "_uri",
          "type": "string"
        }
      ],
      "name": "create",
      "outputs": [
        {
          "internalType": "uint256",
          "name": "",
          "type": "uint256"
        }
      ],
      "stateMutability": "payable",
      "type": "function"
    },
    {
      "inputs": [
        {
          "internalType": "address",
          "name": "_initialOwner",
          "type": "address"
        },
        {
          "internalType": "uint256",
          "name": "_initialSupply",
          "type": "uint256"
        },
        {
          "internalType": "string",
          "name": "_uri",
          "type": "string"
        },
        {
          "internalType": "uint256",
          "name": "_royalty",
          "type": "uint256"
        }
      ],
      "name": "createAndSetRoyal",
      "outputs": [
        {
          "internalType": "uint256",
          "name": "",
          "type": "uint256"
        }
      ],
      "stateMutability": "nonpayable",
      "type": "function"
    },
    {
      "inputs": [
        {
          "internalType": "uint256",
          "name": "",
          "type": "uint256"
        }
      ],
      "name": "creators",
      "outputs": [
        {
          "internalType": "address",
          "name": "",
          "type": "address"
        }
      ],
      "stateMutability": "view",
      "type": "function"
    },
    {
      "inputs": [
        {
          "internalType": "uint256",
          "name": "_id",
          "type": "uint256"
        }
      ],
      "name": "getCreator",
      "outputs": [
        {
          "internalType": "address",
          "name": "",
          "type": "address"
        }
      ],
      "stateMutability": "view",
      "type": "function"
    },
    {
      "inputs": [],
      "name": "getDecimal",
      "outputs": [
        {
          "internalType": "uint256",
          "name": "",
          "type": "uint256"
        }
      ],
      "stateMutability": "view",
      "type": "function"
    },
    {
      "inputs": [
        {
          "internalType": "uint256",
          "name": "_id",
          "type": "uint256"
        }
      ],
      "name": "getRoyalty",
      "outputs": [
        {
          "internalType": "uint256",
          "name": "",
          "type": "uint256"
        }
      ],
      "stateMutability": "view",
      "type": "function"
    },
    {
      "inputs": [
        {
          "internalType": "address",
          "name": "account",
          "type": "address"
        },
        {
          "internalType": "address",
          "name": "operator",
          "type": "address"
        }
      ],
      "name": "isApprovedForAll",
      "outputs": [
        {
          "internalType": "bool",
          "name": "",
          "type": "bool"
        }
      ],
      "stateMutability": "view",
      "type": "function"
    },
    {
      "inputs": [],
      "name": "name",
      "outputs": [
        {
          "internalType": "string",
          "name": "",
          "type": "string"
        }
      ],
      "stateMutability": "view",
      "type": "function"
    },
    {
      "inputs": [],
      "name": "owner",
      "outputs": [
        {
          "internalType": "address",
          "name": "",
          "type": "address"
        }
      ],
      "stateMutability": "view",
      "type": "function"
    },
    {
      "inputs": [],
      "name": "renounceOwnership",
      "outputs": [],
      "stateMutability": "nonpayable",
      "type": "function"
    },
    {
      "inputs": [
        {
          "internalType": "uint256",
          "name": "",
          "type": "uint256"
        }
      ],
      "name": "royalties",
      "outputs": [
        {
          "internalType": "uint256",
          "name": "",
          "type": "uint256"
        }
      ],
      "stateMutability": "view",
      "type": "function"
    },
    {
      "inputs": [
        {
          "internalType": "address",
          "name": "from",
          "type": "address"
        },
        {
          "internalType": "address",
          "name": "to",
          "type": "address"
        },
        {
          "internalType": "uint256[]",
          "name": "ids",
          "type": "uint256[]"
        },
        {
          "internalType": "uint256[]",
          "name": "amounts",
          "type": "uint256[]"
        },
        {
          "internalType": "bytes",
          "name": "data",
          "type": "bytes"
        }
      ],
      "name": "safeBatchTransferFrom",
      "outputs": [],
      "stateMutability": "nonpayable",
      "type": "function"
    },
    {
      "inputs": [
        {
          "internalType": "address",
          "name": "from",
          "type": "address"
        },
        {
          "internalType": "address",
          "name": "to",
          "type": "address"
        },
        {
          "internalType": "uint256",
          "name": "id",
          "type": "uint256"
        },
        {
          "internalType": "uint256",
          "name": "value",
          "type": "uint256"
        }
      ],
      "name": "safeTransferFrom",
      "outputs": [],
      "stateMutability": "nonpayable",
      "type": "function"
    },
    {
      "inputs": [
        {
          "internalType": "address",
          "name": "from",
          "type": "address"
        },
        {
          "internalType": "address",
          "name": "to",
          "type": "address"
        },
        {
          "internalType": "uint256",
          "name": "id",
          "type": "uint256"
        },
        {
          "internalType": "uint256",
          "name": "amount",
          "type": "uint256"
        },
        {
          "internalType": "bytes",
          "name": "data",
          "type": "bytes"
        }
      ],
      "name": "safeTransferFrom",
      "outputs": [],
      "stateMutability": "nonpayable",
      "type": "function"
    },
    {
      "inputs": [
        {
          "internalType": "address",
          "name": "operator",
          "type": "address"
        },
        {
          "internalType": "bool",
          "name": "approved",
          "type": "bool"
        }
      ],
      "name": "setApprovalForAll",
      "outputs": [],
      "stateMutability": "nonpayable",
      "type": "function"
    },
    {
      "inputs": [
        {
          "internalType": "uint256",
          "name": "_id",
          "type": "uint256"
        },
        {
          "internalType": "uint256",
          "name": "royalty",
          "type": "uint256"
        }
      ],
      "name": "setRoyalty",
      "outputs": [],
      "stateMutability": "nonpayable",
      "type": "function"
    },
    {
      "inputs": [
        {
          "internalType": "bytes4",
          "name": "interfaceId",
          "type": "bytes4"
        }
      ],
      "name": "supportsInterface",
      "outputs": [
        {
          "internalType": "bool",
          "name": "",
          "type": "bool"
        }
      ],
      "stateMutability": "view",
      "type": "function"
    },
    {
      "inputs": [],
      "name": "symbol",
      "outputs": [
        {
          "internalType": "string",
          "name": "",
          "type": "string"
        }
      ],
      "stateMutability": "view",
      "type": "function"
    },
    {
      "inputs": [
        {
          "internalType": "uint256",
          "name": "",
          "type": "uint256"
        }
      ],
      "name": "tokenSupply",
      "outputs": [
        {
          "internalType": "uint256",
          "name": "",
          "type": "uint256"
        }
      ],
      "stateMutability": "view",
      "type": "function"
    },
    {
      "inputs": [
        {
          "internalType": "address",
          "name": "newOwner",
          "type": "address"
        }
      ],
      "name": "transferOwnership",
      "outputs": [],
      "stateMutability": "nonpayable",
      "type": "function"
    },
    {
      "inputs": [
        {
          "internalType": "uint256",
          "name": "_id",
          "type": "uint256"
        }
      ],
      "name": "uri",
      "outputs": [
        {
          "internalType": "string",
          "name": "",
          "type": "string"
        }
      ],
      "stateMutability": "view",
      "type": "function"
    },
    {
      "inputs": [
        {
          "internalType": "uint256",
          "name": "",
          "type": "uint256"
        }
      ],
      "name": "uris",
      "outputs": [
        {
          "internalType": "string",
          "name": "",
          "type": "string"
        }
      ],
      "stateMutability": "view",
      "type": "function"
    }
  ],
  "bytecode": "0x60806040526002600c553480156200001657600080fd5b506040516200242c3803806200242c83398101604081905262000039916200029d565b8282604051806020016040528060008152506200005c81620000cc60201b60201c565b506200006833620000e5565b6200007f60046200013760201b62000c691760201c565b81516200009490600890602085019062000140565b508051620000aa90600990602084019062000140565b50508151620000c29150600a90602084019062000140565b5050505062000381565b8051620000e190600290602084019062000140565b5050565b600380546001600160a01b038381166001600160a01b0319831681179093556040519116919082907f8be0079c531659141344cd1fd0a4f28419497f9722a3daafe3b4186f6b6457e090600090a35050565b80546001019055565b8280546200014e906200032e565b90600052602060002090601f016020900481019282620001725760008555620001bd565b82601f106200018d57805160ff1916838001178555620001bd565b82800160010185558215620001bd579182015b82811115620001bd578251825591602001919060010190620001a0565b50620001cb929150620001cf565b5090565b5b80821115620001cb5760008155600101620001d0565b600082601f830112620001f857600080fd5b81516001600160401b03808211156200021557620002156200036b565b604051601f8301601f19908116603f011681019082821181831017156200024057620002406200036b565b816040528381526020925086838588010111156200025d57600080fd5b600091505b8382101562000281578582018301518183018401529082019062000262565b83821115620002935760008385830101525b9695505050505050565b600080600060608486031215620002b357600080fd5b83516001600160401b0380821115620002cb57600080fd5b620002d987838801620001e6565b94506020860151915080821115620002f057600080fd5b620002fe87838801620001e6565b935060408601519150808211156200031557600080fd5b506200032486828701620001e6565b9150509250925092565b600181811c908216806200034357607f821691505b602082108114156200036557634e487b7160e01b600052602260045260246000fd5b50919050565b634e487b7160e01b600052604160045260246000fd5b61209b80620003916000396000f3fe6080604052600436106101805760003560e01c8063715018a6116100d1578063cd53d08e1161008a578063e985e9c511610064578063e985e9c5146104a5578063f242432a146104ee578063f2fde38b1461050e578063f5298aca1461052e57600080fd5b8063cd53d08e14610424578063d48e638a1461045a578063e8a3d4851461049057600080fd5b8063715018a61461035b5780637f77f574146103705780638da5cb5b1461039d578063933a6f0d146103cf57806395d89b41146103ef578063a22cb4651461040457600080fd5b80631af9cf491161013e57806334ce10c41161011857806334ce10c4146102e657806345dfdd94146102fb5780634e1273f41461031b57806369fc551a1461034857600080fd5b80631af9cf491461026c5780632693ebf2146102995780632eb2c2d6146102c657600080fd5b8062fdd58e1461018557806301ffc9a7146101b857806306fdde03146101e85780630e89341c1461020a5780630febdd491461022a5780631253c5461461024c575b600080fd5b34801561019157600080fd5b506101a56101a03660046119be565b61054e565b6040519081526020015b60405180910390f35b3480156101c457600080fd5b506101d86101d3366004611ba8565b6105e5565b60405190151581526020016101af565b3480156101f457600080fd5b506101fd610610565b6040516101af9190611d89565b34801561021657600080fd5b506101fd610225366004611be2565b61069e565b34801561023657600080fd5b5061024a6102453660046118db565b610740565b005b34801561025857600080fd5b506101fd610267366004611be2565b61078c565b34801561027857600080fd5b506101a5610287366004611be2565b6000908152600b602052604090205490565b3480156102a557600080fd5b506101a56102b4366004611be2565b60066020526000908152604090205481565b3480156102d257600080fd5b5061024a6102e1366004611831565b6107a5565b3480156102f257600080fd5b50600c546101a5565b34801561030757600080fd5b506101a5610316366004611a42565b61083c565b34801561032757600080fd5b5061033b610336366004611ad7565b610868565b6040516101af9190611d48565b6101a56103563660046119e8565b610992565b34801561036757600080fd5b5061024a610a19565b34801561037c57600080fd5b506101a561038b366004611be2565b600b6020526000908152604090205481565b3480156103a957600080fd5b506003546001600160a01b03165b6040516001600160a01b0390911681526020016101af565b3480156103db57600080fd5b5061024a6103ea366004611bfb565b610a4f565b3480156103fb57600080fd5b506101fd610ae4565b34801561041057600080fd5b5061024a61041f366004611982565b610af1565b34801561043057600080fd5b506103b761043f366004611be2565b6005602052600090815260409020546001600160a01b031681565b34801561046657600080fd5b506103b7610475366004611be2565b6000908152600560205260409020546001600160a01b031690565b34801561049c57600080fd5b506101fd610b00565b3480156104b157600080fd5b506101d86104c03660046117fe565b6001600160a01b03918216600090815260016020908152604080832093909416825291909152205460ff1690565b3480156104fa57600080fd5b5061024a61050936600461191d565b610b0d565b34801561051a57600080fd5b5061024a6105293660046117dc565b610b94565b34801561053a57600080fd5b5061024a610549366004611aa4565b610c2f565b60006001600160a01b0383166105bf5760405162461bcd60e51b815260206004820152602b60248201527f455243313135353a2062616c616e636520717565727920666f7220746865207a60448201526a65726f206164647265737360a81b60648201526084015b60405180910390fd5b506000908152602081815260408083206001600160a01b03949094168352929052205490565b60006001600160e01b0319821663162e074f60e11b148061060a575061060a82610c72565b92915050565b6008805461061d90611ee4565b80601f016020809104026020016040519081016040528092919081815260200182805461064990611ee4565b80156106965780601f1061066b57610100808354040283529160200191610696565b820191906000526020600020905b81548152906001019060200180831161067957829003601f168201915b505050505081565b60008181526007602052604090208054606091906106bb90611ee4565b80601f01602080910402602001604051908101604052809291908181526020018280546106e790611ee4565b80156107345780601f1061070957610100808354040283529160200191610734565b820191906000526020600020905b81548152906001019060200180831161071757829003601f168201915b50505050509050919050565b6003546001600160a01b0316331461076a5760405162461bcd60e51b81526004016105b690611e73565b6107868484848460405180602001604052806000815250610cc2565b50505050565b6007602052600090815260409020805461061d90611ee4565b6001600160a01b0385163314806107c157506107c185336104c0565b6108285760405162461bcd60e51b815260206004820152603260248201527f455243313135353a207472616e736665722063616c6c6572206973206e6f74206044820152711bdddb995c881b9bdc88185c1c1c9bdd995960721b60648201526084016105b6565b6108358585858585610de8565b5050505050565b60008061084b87878787610992565b6000818152600b6020526040902084905591505095945050505050565b606081518351146108cd5760405162461bcd60e51b815260206004820152602960248201527f455243313135353a206163636f756e747320616e6420696473206c656e677468604482015268040dad2e6dac2e8c6d60bb1b60648201526084016105b6565b6000835167ffffffffffffffff8111156108e9576108e9611f93565b604051908082528060200260200182016040528015610912578160200160208202803683370190505b50905060005b845181101561098a5761095d85828151811061093657610936611f7d565b602002602001015185838151811061095057610950611f7d565b602002602001015161054e565b82828151811061096f5761096f611f7d565b602090810291909101015261098381611f4c565b9050610918565b509392505050565b60008061099e60045490565b90506109ae600480546001019055565b6109c986828760405180602001604052806000815250610fc5565b60008181526006602090815260408083208890556005825280832080546001600160a01b0319166001600160a01b038b1617905560079091529020610a0f9085856115f3565b5095945050505050565b6003546001600160a01b03163314610a435760405162461bcd60e51b81526004016105b690611e73565b610a4d60006110c6565b565b60008281526005602052604090205482906001600160a01b03163314610ad15760405162461bcd60e51b815260206004820152603160248201527f455243313135355472616461626c652363726561746f724f6e6c793a204f4e4c6044820152701657d0d491505513d497d0531313d5d151607a1b60648201526084016105b6565b506000918252600b602052604090912055565b6009805461061d90611ee4565b610afc338383611118565b5050565b600a805461061d90611ee4565b6001600160a01b038516331480610b295750610b2985336104c0565b610b875760405162461bcd60e51b815260206004820152602960248201527f455243313135353a2063616c6c6572206973206e6f74206f776e6572206e6f7260448201526808185c1c1c9bdd995960ba1b60648201526084016105b6565b6108358585858585610cc2565b6003546001600160a01b03163314610bbe5760405162461bcd60e51b81526004016105b690611e73565b6001600160a01b038116610c235760405162461bcd60e51b815260206004820152602660248201527f4f776e61626c653a206e6577206f776e657220697320746865207a65726f206160448201526564647265737360d01b60648201526084016105b6565b610c2c816110c6565b50565b6003546001600160a01b03163314610c595760405162461bcd60e51b81526004016105b690611e73565b610c648383836111f9565b505050565b80546001019055565b60006001600160e01b03198216636cdb3d1360e11b1480610ca357506001600160e01b031982166303a24d0760e21b145b8061060a57506301ffc9a760e01b6001600160e01b031983161461060a565b6001600160a01b038416610ce85760405162461bcd60e51b81526004016105b690611de4565b33610d01818787610cf888611373565b61083588611373565b6000848152602081815260408083206001600160a01b038a16845290915290205483811015610d425760405162461bcd60e51b81526004016105b690611e29565b6000858152602081815260408083206001600160a01b038b8116855292528083208785039055908816825281208054869290610d7f908490611ecc565b909155505060408051868152602081018690526001600160a01b03808916928a821692918616917fc3d58168c5ae7397731d063d5bbf3d657854427343f4c083240f7aacaa2d0f62910160405180910390a4610ddf8288888888886113be565b50505050505050565b8151835114610e4a5760405162461bcd60e51b815260206004820152602860248201527f455243313135353a2069647320616e6420616d6f756e7473206c656e677468206044820152670dad2e6dac2e8c6d60c31b60648201526084016105b6565b6001600160a01b038416610e705760405162461bcd60e51b81526004016105b690611de4565b3360005b8451811015610f57576000858281518110610e9157610e91611f7d565b602002602001015190506000858381518110610eaf57610eaf611f7d565b602090810291909101810151600084815280835260408082206001600160a01b038e168352909352919091205490915081811015610eff5760405162461bcd60e51b81526004016105b690611e29565b6000838152602081815260408083206001600160a01b038e8116855292528083208585039055908b16825281208054849290610f3c908490611ecc565b9250508190555050505080610f5090611f4c565b9050610e74565b50846001600160a01b0316866001600160a01b0316826001600160a01b03167f4a39dc06d4c0dbc64b70af90fd698a233a518aa5d07e595d983b8c0526c8f7fb8787604051610fa7929190611d5b565b60405180910390a4610fbd818787878787611529565b505050505050565b6001600160a01b0384166110255760405162461bcd60e51b815260206004820152602160248201527f455243313135353a206d696e7420746f20746865207a65726f206164647265736044820152607360f81b60648201526084016105b6565b3361103681600087610cf888611373565b6000848152602081815260408083206001600160a01b038916845290915281208054859290611066908490611ecc565b909155505060408051858152602081018590526001600160a01b0380881692600092918516917fc3d58168c5ae7397731d063d5bbf3d657854427343f4c083240f7aacaa2d0f62910160405180910390a4610835816000878787876113be565b600380546001600160a01b038381166001600160a01b0319831681179093556040519116919082907f8be0079c531659141344cd1fd0a4f28419497f9722a3daafe3b4186f6b6457e090600090a35050565b816001600160a01b0316836001600160a01b0316141561118c5760405162461bcd60e51b815260206004820152602960248201527f455243313135353a2073657474696e6720617070726f76616c20737461747573604482015268103337b91039b2b63360b91b60648201526084016105b6565b6001600160a01b03838116600081815260016020908152604080832094871680845294825291829020805460ff191686151590811790915591519182527f17307eab39ab6107e8899845ad3d59bd9653f200f220920489ca2b5937696c31910160405180910390a3505050565b6001600160a01b03831661125b5760405162461bcd60e51b815260206004820152602360248201527f455243313135353a206275726e2066726f6d20746865207a65726f206164647260448201526265737360e81b60648201526084016105b6565b3361128b8185600061126c87611373565b61127587611373565b5050604080516020810190915260009052505050565b6000838152602081815260408083206001600160a01b0388168452909152902054828110156113085760405162461bcd60e51b8152602060048201526024808201527f455243313135353a206275726e20616d6f756e7420657863656564732062616c604482015263616e636560e01b60648201526084016105b6565b6000848152602081815260408083206001600160a01b03898116808652918452828520888703905582518981529384018890529092908616917fc3d58168c5ae7397731d063d5bbf3d657854427343f4c083240f7aacaa2d0f62910160405180910390a45050505050565b604080516001808252818301909252606091600091906020808301908036833701905050905082816000815181106113ad576113ad611f7d565b602090810291909101015292915050565b6001600160a01b0384163b15610fbd5760405163f23a6e6160e01b81526001600160a01b0385169063f23a6e61906114029089908990889088908890600401611d03565b602060405180830381600087803b15801561141c57600080fd5b505af192505050801561144c575060408051601f3d908101601f1916820190925261144991810190611bc5565b60015b6114f957611458611fa9565b806308c379a01415611492575061146d611fc5565b806114785750611494565b8060405162461bcd60e51b81526004016105b69190611d89565b505b60405162461bcd60e51b815260206004820152603460248201527f455243313135353a207472616e7366657220746f206e6f6e20455243313135356044820152732932b1b2b4bb32b91034b6b83632b6b2b73a32b960611b60648201526084016105b6565b6001600160e01b0319811663f23a6e6160e01b14610ddf5760405162461bcd60e51b81526004016105b690611d9c565b6001600160a01b0384163b15610fbd5760405163bc197c8160e01b81526001600160a01b0385169063bc197c819061156d9089908990889088908890600401611ca5565b602060405180830381600087803b15801561158757600080fd5b505af19250505080156115b7575060408051601f3d908101601f191682019092526115b491810190611bc5565b60015b6115c357611458611fa9565b6001600160e01b0319811663bc197c8160e01b14610ddf5760405162461bcd60e51b81526004016105b690611d9c565b8280546115ff90611ee4565b90600052602060002090601f0160209004810192826116215760008555611667565b82601f1061163a5782800160ff19823516178555611667565b82800160010185558215611667579182015b8281111561166757823582559160200191906001019061164c565b50611673929150611677565b5090565b5b808211156116735760008155600101611678565b80356001600160a01b03811681146116a357600080fd5b919050565b600082601f8301126116b957600080fd5b813560206116c682611ea8565b6040516116d38282611f1f565b8381528281019150858301600585901b870184018810156116f357600080fd5b60005b85811015611712578135845292840192908401906001016116f6565b5090979650505050505050565b600082601f83011261173057600080fd5b813567ffffffffffffffff81111561174a5761174a611f93565b604051611761601f8301601f191660200182611f1f565b81815284602083860101111561177657600080fd5b816020850160208301376000918101602001919091529392505050565b60008083601f8401126117a557600080fd5b50813567ffffffffffffffff8111156117bd57600080fd5b6020830191508360208285010111156117d557600080fd5b9250929050565b6000602082840312156117ee57600080fd5b6117f78261168c565b9392505050565b6000806040838503121561181157600080fd5b61181a8361168c565b91506118286020840161168c565b90509250929050565b600080600080600060a0868803121561184957600080fd5b6118528661168c565b94506118606020870161168c565b9350604086013567ffffffffffffffff8082111561187d57600080fd5b61188989838a016116a8565b9450606088013591508082111561189f57600080fd5b6118ab89838a016116a8565b935060808801359150808211156118c157600080fd5b506118ce8882890161171f565b9150509295509295909350565b600080600080608085870312156118f157600080fd5b6118fa8561168c565b93506119086020860161168c565b93969395505050506040820135916060013590565b600080600080600060a0868803121561193557600080fd5b61193e8661168c565b945061194c6020870161168c565b93506040860135925060608601359150608086013567ffffffffffffffff81111561197657600080fd5b6118ce8882890161171f565b6000806040838503121561199557600080fd5b61199e8361168c565b9150602083013580151581146119b357600080fd5b809150509250929050565b600080604083850312156119d157600080fd5b6119da8361168c565b946020939093013593505050565b600080600080606085870312156119fe57600080fd5b611a078561168c565b935060208501359250604085013567ffffffffffffffff811115611a2a57600080fd5b611a3687828801611793565b95989497509550505050565b600080600080600060808688031215611a5a57600080fd5b611a638661168c565b945060208601359350604086013567ffffffffffffffff811115611a8657600080fd5b611a9288828901611793565b96999598509660600135949350505050565b600080600060608486031215611ab957600080fd5b611ac28461168c565b95602085013595506040909401359392505050565b60008060408385031215611aea57600080fd5b823567ffffffffffffffff80821115611b0257600080fd5b818501915085601f830112611b1657600080fd5b81356020611b2382611ea8565b604051611b308282611f1f565b8381528281019150858301600585901b870184018b1015611b5057600080fd5b600096505b84871015611b7a57611b668161168c565b835260019690960195918301918301611b55565b5096505086013592505080821115611b9157600080fd5b50611b9e858286016116a8565b9150509250929050565b600060208284031215611bba57600080fd5b81356117f78161204f565b600060208284031215611bd757600080fd5b81516117f78161204f565b600060208284031215611bf457600080fd5b5035919050565b60008060408385031215611c0e57600080fd5b50508035926020909101359150565b600081518084526020808501945080840160005b83811015611c4d57815187529582019590820190600101611c31565b509495945050505050565b6000815180845260005b81811015611c7e57602081850181015186830182015201611c62565b81811115611c90576000602083870101525b50601f01601f19169290920160200192915050565b6001600160a01b0386811682528516602082015260a060408201819052600090611cd190830186611c1d565b8281036060840152611ce38186611c1d565b90508281036080840152611cf78185611c58565b98975050505050505050565b6001600160a01b03868116825285166020820152604081018490526060810183905260a060808201819052600090611d3d90830184611c58565b979650505050505050565b6020815260006117f76020830184611c1d565b604081526000611d6e6040830185611c1d565b8281036020840152611d808185611c1d565b95945050505050565b6020815260006117f76020830184611c58565b60208082526028908201527f455243313135353a204552433131353552656365697665722072656a656374656040820152676420746f6b656e7360c01b606082015260800190565b60208082526025908201527f455243313135353a207472616e7366657220746f20746865207a65726f206164604082015264647265737360d81b606082015260800190565b6020808252602a908201527f455243313135353a20696e73756666696369656e742062616c616e636520666f60408201526939103a3930b739b332b960b11b606082015260800190565b6020808252818101527f4f776e61626c653a2063616c6c6572206973206e6f7420746865206f776e6572604082015260600190565b600067ffffffffffffffff821115611ec257611ec2611f93565b5060051b60200190565b60008219821115611edf57611edf611f67565b500190565b600181811c90821680611ef857607f821691505b60208210811415611f1957634e487b7160e01b600052602260045260246000fd5b50919050565b601f8201601f1916810167ffffffffffffffff81118282101715611f4557611f45611f93565b6040525050565b6000600019821415611f6057611f60611f67565b5060010190565b634e487b7160e01b600052601160045260246000fd5b634e487b7160e01b600052603260045260246000fd5b634e487b7160e01b600052604160045260246000fd5b600060033d1115611fc25760046000803e5060005160e01c5b90565b600060443d1015611fd35790565b6040516003193d81016004833e81513d67ffffffffffffffff816024840111818411171561200357505050505090565b828501915081518181111561201b5750505050505090565b843d87010160208285010111156120355750505050505090565b61204460208286010187611f1f565b509095945050505050565b6001600160e01b031981168114610c2c57600080fdfea2646970667358221220dac3b13ff2a9cf149337a587094195128ddf5f9009b36eb2170d48937b9e022664736f6c63430008070033",
  "linkReferences": {},
  "deployedLinkReferences": {}
}